:100000000C9435000C945D000C945D000C945D0024
:100010000C945D000C945D000C945D000C945D00EC
:100020000C945D000C945D000C945D000C945D00DC
:100030000C945D000C945D000C945D000C945D00CC
:100040000C9448050C945D000C94D6020C94B002FC
:100050000C945D000C945D000C945D000C945D00AC
:100060000C945D000C945D007B0C11241FBECFEF3F
:10007000D8E0DEBFCDBF11E0A0E0B1E0E0E7FAE1FB
:1000800002C005900D92A433B107D9F722E0A4E392
:10009000B1E001C01D92AE31B207E1F710E0C5E357
:1000A000D0E004C02197FE010E941C0DC433D1078B
:1000B000C9F70E9492050C94360D0C940000CF9263
:1000C000DF92EF92FF920F931F93CF93DF936C0118
:1000D0007A018B01C0E0D0E0CE15DF0581F0D801B8
:1000E0006D918D01D601ED91FC910190F081E02D93
:1000F000C6010995892B11F02196EECF7E01C7012B
:10010000DF91CF911F910F91FF90EF90DF90CF90F3
:100110000895089580E090E00895FC01538D448D8A
:10012000252F30E0842F90E0821B930B541710F0A2
:10013000CF96089501970895FC01918D828D9817AF
:1001400061F0828DDF01A80FB11D5D968C91928DBB
:100150009F5F9F73928F90E008958FEF9FEF0895B8
:10016000FC01918D828D981731F0828DE80FF11D81
:10017000858D90E008958FEF9FEF0895FC01918D9C
:10018000228D892F90E0805C9F4F821B91098F7395
:100190009927089581E691E00E94BE0021E0892B15
:1001A00009F420E0822F0895FC01848DDF01A80F5F
:1001B000B11DA35ABF4F2C91848D90E001968F738F
:1001C0009927848FA689B7892C93A089B1898C91AE
:1001D000837080648C93938D848D981306C00288FD
:1001E000F389E02D80818F7D80830895EF92FF92C7
:1001F0000F931F93CF93DF93EC0181E0888F9B8D4A
:100200008C8D981305C0E889F989808185FD26C009
:10021000F62E0B8D10E00F5F1F4F0F731127E02E8E
:100220008C8DE8120CC00FB607FCFACFE889F9896B
:10023000808185FFF5CFCE010E94D400F1CF8B8D58
:10024000FE01E80FF11DE35AFF4FF0829FB7F894CB
:100250000B8FEA89FB89808180620AC09FB7F8947E
:10026000EE89FF896083E889F989808183708064E1
:1002700080839FBF81E090E0DF91CF911F910F912C
:10028000FF90EF900895CF93DF93EC01888D882342
:10029000C9F0EA89FB89808185FD05C0A889B989F3
:1002A0008C9186FD0FC00FB607FCF5CF808185FFCE
:1002B000F2CFA889B9898C9185FFEDCFCE010E943C
:1002C000D400E7CFDF91CF91089580E090E0892BB3
:1002D00029F00E94CA0081110C94000008950F9328
:1002E0001F93CF93DF9320915E012F5F322F3770E2
:1002F00030935E0120FF02C020E801C020E031FD04
:100300002064347009F02062205FFC01EC01239628
:1003100000E011E06485662331F070E0C8010E94BE
:10032000C70C6F5F01C060E06187322F369F030EFC
:1003300030E0311D1124311102C0168202C031504B
:100340003683662311F0615061873196CE17DF073F
:1003500009F7DF91CF911F910F91089587FF02C098
:10036000299A01C02998289A00140014289800148A
:1003700086FF02C0299A01C02998289A0014001407
:100380002898001485FF02C0299A01C02998289A4C
:10039000001400142898001484FF02C0299A01C098
:1003A0002998289A001400142898001483FF02C08A
:1003B000299A01C02998289A00140014289800143A
:1003C00082FF02C0299A01C02998289A00140014BB
:1003D0002898001481FF02C0299A01C02998289A00
:1003E000001400142898001480FF02C0299A01C04C
:1003F0002998289A00140014289800140895EF9260
:10040000FF920F931F93CF93DF93CDB7DEB7629721
:100410000FB6F894DEBF0FBECDBF7C01DC011C9689
:100420008C917A8369835C834B835E834D830D87D4
:100430001E872F87813029F4CE0101960E946F011B
:1004400006C01C861B861A86198618861F8283E0C2
:10045000888B1A8A198AD701ED91FC910484F5855D
:10046000E02DBE016F5F7F4FC701099562960FB601
:10047000F894DEBF0FBECDBFDF91CF911F910F91DA
:10048000FF90EF900895EF92FF920F931F93CF93F9
:10049000DF93CDB7DEB762970FB6F894DEBF0FBE1D
:1004A000CDBF7C01DC011C968C917A8369835C83CF
:1004B0004B835E834D830D871E872F87813029F400
:1004C000CE0101960E946F0106C01C861B861A860B
:1004D000198618861F82188A1A8A198AD701ED91FF
:1004E000FC910484F585E02DBE016F5F7F4FC7014D
:1004F000099562960FB6F894DEBF0FBECDBFDF91AF
:10050000CF911F910F91FF90EF9008950F931F933C
:10051000CF93DF9300D01F92CDB7DEB7AB01198226
:100520001A821B82DC01ED91FC910190F081E02D9B
:1005300000E010E020E0BE016F5F7F4F09950F9053
:100540000F900F90DF91CF911F910F910895FC01B3
:1005500085859685089580E090E008950E94310D8C
:100560001F920F920FB60F9211242F933F934F9328
:100570005F936F937F938F939F93AF93BF93EF930B
:10058000FF9381E691E00E94D400FF91EF91BF912B
:10059000AF919F918F917F916F915F914F913F911B
:1005A0002F910F900FBE0F901F9018951F920F92D2
:1005B0000FB60F9211242F938F939F93EF93FF9376
:1005C000E0917101F09172018081E0917701F091E9
:1005D000780182FD12C0908180917A018F5F8F73C4
:1005E00020917B01821751F0E0917A01F0E0EF5900
:1005F000FE4F958F80937A0101C08081FF91EF912A
:100600009F918F912F910F900FBE0F901F90189573
:10061000DC018D919C91009739F0DC01ED91FC910A
:100620000280F381E02D09940895AF92BF92CF929A
:10063000DF92EF92FF920F931F93CF93DF93EB0123
:100640007C012FE0E20EF11CDC011F968D919C9144
:100650005097009739F0DC01ED91FC910190F08109
:10066000E02D0995CC84BD84AE8480E00E94AE016B
:1006700080E00E94AE0180E00E94AE0180E00E9416
:10068000AE018C819D81181619060CF044C0E881DA
:10069000F98188899989E80FF91F12812A2D129F03
:1006A000010E10E0111D112401813B2D039F000E4E
:1006B00000E0011D1124D0802D2D3C2D239F020E22
:1006C00020E0211D1124D22E8FEF0E94AE018D2D2E
:1006D0000E94AE01802F0E94AE01812F0E94AE01C8
:1006E00089859E81891B8E838A859F81891B8F8343
:1006F0008B859885891B88872F8588819981820FB2
:10070000911D27FD9A95998388838C819D810197FE
:100710009D838C83B6CF8A819B8197FD4F96EC0198
:1007200085E0D595C7958A95E1F78FEF0E94AE01D8
:1007300080E00E94AE0180E00E94AE0180E00E9455
:10074000AE01219790F7C701DF91CF911F910F91D3
:10075000FF90EF90DF90CF90BF90AF900C94080384
:10076000219A209A0F960C9408033FB7F894809131
:100770000C0290910D02A0910E02B0910F0226B5CD
:10078000A89B05C02F3F19F00196A11DB11D3FBFC9
:10079000BA2FA92F982F8827820F911DA11DB11D57
:1007A000BC01CD0142E0660F771F881F991F4A9553
:1007B000D1F708953F924F925F926F927F928F92FE
:1007C0009F92AF92BF92CF92DF92EF92FF920F93E0
:1007D0001F93CF93DF9300D01F92CDB7DEB7D09099
:1007E000FE018091010290910202A0910302B0915A
:1007F0000402892B8A2B8B2BE9F00E94B503009110
:100800001A0210911B0220911C0230911D02DC0182
:10081000CB01801B910BA20BB30B00910102109135
:100820000202209103023091040280179107A2076F
:10083000B307B8F20E94B50360931A0270931B02CB
:1008400080931C0290931D02E0910902F0910A022C
:10085000309759F0409105025091060260910702CD
:10086000709108028D2D0995D82EE0905F01F090CF
:1008700060014D2C512C612C712CE114F10409F410
:100880005EC0D7011C96CC901C978091FF0190917F
:1008900000028436910510F41C961C92D701ED914C
:1008A000FC918280938019821A821B82D11014C01D
:1008B00009811A812B81F7014585568562817381F3
:1008C000C701F4010995D7011C96CC921C97149688
:1008D000ED90FC901597D1CFF70136968E010F5F02
:1008E0001F4F5701B9E0AB0EB11C2191222309F132
:1008F00032803320F1F0822F90E0A0E0B0E09C0144
:10090000AD012F5F3F4F4F4F5F4FC301B2010E94B8
:10091000B70C9B01AC01832D90E0A0E0B0E0BC01DE
:10092000CD016F5F7F4F8F4F9F4F0E94B70CD80153
:100930008C930F5F1F4FEA15FB05B9F6B9CF809175
:100940001802909119029C012F5F3F4F30931902BA
:100950002093180249970CF44CC08FB7F89440913B
:1009600010025091110260911202709113028FBF18
:100970008091140290911502A0911602B091170275
:100980009A01AB01281B390B4A0B5B0B21F421E0C8
:1009900030E040E050E0E0911802F091190288EE5A
:1009A00093E0E89FB001E99F700DF89F700D11244E
:1009B000072E000C880B990B0E94DB0C3093000271
:1009C0002093FF0110921902109218022FB7F89489
:1009D0008091100290911102A0911202B091130225
:1009E0002FBF8093140290931502A0931602B09328
:1009F00017020F900F900F90DF91CF911F910F91E1
:100A0000FF90EF90DF90CF90BF90AF909F908F902E
:100A10007F906F905F904F903F9008958F929F923C
:100A2000AF92BF92CF92DF92EF92FF926B017C0167
:100A30000E94B5034B015C01C114D104E104F1042F
:100A4000F1F00E94B503DC01CB0188199909AA09CC
:100A5000BB09883E9340A105B10570F321E0C21A9D
:100A6000D108E108F10888EE880E83E0981EA11CE9
:100A7000B11CC114D104E104F10419F7DDCFFF90DA
:100A8000EF90DF90CF90BF90AF909F908F900895A0
:100A90001F920F920FB60F9211242F933F938F93B3
:100AA0009F93AF93BF938091100290911102A091F8
:100AB0001202B091130230910B0223E0230F2D3765
:100AC00020F40196A11DB11D05C026E8230F029652
:100AD000A11DB11D20930B0280931002909311026F
:100AE000A0931202B093130280910C0290910D0218
:100AF000A0910E02B0910F020196A11DB11D80932D
:100B00000C0290930D02A0930E02B0930F02BF91BE
:100B1000AF919F918F913F912F910F900FBE0F90AA
:100B20001F901895789484B5826084BD84B58160E7
:100B300084BD85B5826085BD85B5816085BD8091A8
:100B40006E00816080936E00109281008091810020
:100B50008260809381008091810081608093810018
:100B6000809180008160809380008091B1008460DA
:100B70008093B1008091B00081608093B00080913B
:100B80007A00846080937A0080917A0082608093FA
:100B90007A0080917A00816080937A0080917A0057
:100BA000806880937A001092C100E0917101F09109
:100BB000720182E08083E0916D01F0916E011082FC
:100BC000E0916F01F09170018FEC808310927901B8
:100BD000E0917501F091760186E08083E0917301E8
:100BE000F0917401808180618083E0917301F091C4
:100BF0007401808188608083E0917301F0917401B9
:100C0000808180688083E0917301F091740180811C
:100C10008F7D808368EE73E080E090E00E940E0597
:100C200080914701811145C010923901109238011D
:100C30008FEF80933C0180933D0180933E01809330
:100C40003F01809340018093410181E08093420104
:100C5000109244011092430110923B0110923A010C
:100C600080915F0190916001892B31F486E391E0DE
:100C70009093600180935F01E0913401F091350120
:100C8000309721F086E391E09583848386E391E0B9
:100C9000909335018093340184E191E09093370182
:100CA00080933601109246011092450181E08093B5
:100CB0004701219A209A85E491E00E9408038FE47D
:100CC00091E0909339018093380185E090E0909312
:100CD00044018093430180E88093FE01CFEF0BE451
:100CE00010E0FBE4EF2EFFE0FF2EDFEFABE4CA2EB7
:100CF000D12CBBE4AB2EBFE0BB2E8AE6282E81E0D0
:100D0000382E9BE9492E9FE0592EEFE46E2EE1E04C
:100D10007E2E4301F401C1A312A213A20E94DA03A2
:100D2000C8010197F1F7F40111A212A213A20E94C7
:100D3000DA03C7010197F1F7F3E08F0E911C8BE501
:100D4000881681E0980631F7D0936D0110926E01FC
:100D500010926F01D0937C0110927D0110927E0160
:100D60000E94DA03C6010197F1F710926D0110920B
:100D70006E0110926F0110927C0110927D01109211
:100D80007E010E94DA03C5010197F1F7D0936A0151
:100D900010926B0110926C01D0937F011092800130
:100DA000109281010E94DA03C6010197F1F71092B7
:100DB0006A0110926B0110926C0110927F011092E7
:100DC0008001109281010E94DA03C5010197F1F7B9
:100DD000D09367011092680110926901D09382014B
:100DE00010928301109284010E94DA03C6010197D8
:100DF000F1F7109267011092680110926901109248
:100E0000820110928301109284010E94DA03C501CD
:100E10000197F1F7D0936A0110926B0110926C0167
:100E2000D0937F0110928001109281010E94DA0319
:100E3000C6010197F1F710926A0110926B011092AE
:100E40006C0110927F0110928001109281010E942A
:100E5000DA03C5010197F1F7D0936D0110926E018D
:100E600010926F01D0937C0110927D0110927E014F
:100E70000E94DA03C6010197F1F710926D011092FA
:100E80006E0110926F0110927C0110927D01109200
:100E90007E010E94DA03C5010197F1F77FE4872EF6
:100EA00071E0972EF401C1A312A213A20E94DA03EB
:100EB000C8010197F1F7F40111A212A213A20E9436
:100EC000DA03C7010197F1F7F3E08F0E911C8BE570
:100ED000881681E0980631F76FE4862E61E0962E41
:100EE000F4011082118212820E94DA038BE39FE1E7
:100EF0000197F1F7F3E08F0E911C85E8881681E0E9
:100F0000980671F75FE4852E51E0952EF401C683B3
:100F1000178210860E94DA03C8010197F1F7F401E5
:100F20001682178210860E94DA03C7010197F1F733
:100F3000F3E08F0E911C8DE6881681E0980631F75C
:100F4000D093730110927401109275010E94DA031C
:100F5000C6010197F1F7109273011092740110927B
:100F600075010E94DA03C5010197F1F7D09376016C
:100F700010927701109278010E94DA03C60101975E
:100F8000F1F71092760110927701109278010E9489
:100F9000DA03C5010197F1F7D093790110927A0134
:100FA00010927B010E94DA03C6010197F1F71092BB
:100FB000790110927A0110927B010E94DA03C50137
:100FC0000197F1F7D093790110927A0110927B0189
:100FD0000E94DA03C6010197F1F71092790110928D
:100FE0007A0110927B010E94DA03C5010197F1F7A3
:100FF000D093790110927A0110927B010E94DA035A
:10100000C6010197F1F71092790110927A011092BE
:101010007B010E94DA03C5010197F1F7D0937601B5
:1010200010927701109278010E94DA03C6010197AD
:10103000F1F71092760110927701109278010E94D8
:10104000DA03C5010197F1F7D0937301109274018F
:10105000109275010E94DA03C6010197F1F7109210
:10106000730110927401109275010E94DA03C50198
:101070000197F1F74FE4842E41E0942EF401C683EA
:10108000178210860E94DA03C8010197F1F7F40174
:101090001682178210860E94DA03C7010197F1F7C2
:1010A000F3E08F0E911C8DE6881681E0980631F7EB
:1010B0003FE4832E31E0932EF401108211821282DC
:1010C0000E94DA038BE39FE10197F1F7F3E08F0EC3
:1010D000911C85E8881681E0980671F7C0936A0133
:1010E00010926B0110926C010E94DA03C801019703
:1010F000F1F710926A0110926B0110926C010E943C
:10110000DA03C7010197F1F7C093670110926801F4
:1011100010926901C0936D0110926E0110926F01DF
:101120000E94DA03C8010197F1F71092670110924B
:1011300068011092690110926D0110926E01109277
:101140006F010E94DA03C7010197F1F7D0934F01B5
:101150001092500110925101C093640110926501E8
:1011600010926601C0937001109271011092720189
:101170000E94DA03C8010197F1F710924F01109213
:101180005001109251011092640110926501109269
:1011900066011092700110927101109272010E940A
:1011A000DA03C7010197F1F7D0934F011092500174
:1011B00010925101C093610110926201109263017B
:1011C000C093700110927101109272010E94DA03B3
:1011D000C8010197F1F710924F011092500110923F
:1011E00051011092610110926201109263010E94FC
:1011F000DA03C7010197F1F7D0934F011092500124
:1012000010925101C0935E0110925F011092600133
:10121000C093700110927101109272010E94DA0362
:10122000C8010197F1F710924F01109250011092EE
:10123000510110925E0110925F01109260011092B4
:10124000700110927101109272010E94DA03C701BD
:101250000197F1F7D0934F01109250011092510174
:10126000D0935B0110925C0110925D01C0937001FC
:1012700010927101109272010E94DA03C801019765
:10128000F1F710924F0110925001109251011092FB
:101290005B0110925C0110925D011092700110923E
:1012A0007101109272010E94DA03C7010197F1F7F0
:1012B000D09352011092530110925401D0935801CF
:1012C0001092590110925A010E94DA03C801019745
:1012D000F1F71092520110925301109254011092A2
:1012E00058011092590110925A010E94DA03C70165
:1012F0000197F1F7D09355011092560110925701C2
:101300000E94DA03C8010197F1F71092550110927B
:101310005601109257010E94DA03C7010197F1F7B5
:101320002FE4822E21E0922EF4011082118212828B
:101330000E94DA038BED9EE20197F1F7F3E08F0E46
:10134000911C85E8881681E0980671F79FE4892E44
:1013500091E0992EF401C083118212820E94DA0377
:10136000C8010197F1F7F4011082118212820E94E4
:10137000DA03C7010197F1F7F3E08F0E911C2814EF
:10138000390441F7D0936A0110926B0110926C01FD
:101390000E94DA03C6010197F1F710926A011092D8
:1013A0006B0110926C010E94DA03C5010197F1F7FD
:1013B000D0936D0110926E0110926F010E94DA03BA
:1013C000C6010197F1F710926D0110926E01109213
:1013D0006F010E94DA03C5010197F1F783E0882EBF
:1013E000912CC093700110927101109272010E94B1
:1013F000DA03C8010197F1F71092700110927101A0
:10140000109272010E94DA03C7010197F1F781E09F
:10141000881A910831F7D0936D0110926E011092E5
:101420006F010E94DA03C6010197F1F710926D0176
:1014300010926E0110926F010E94DA03C5010197AC
:10144000F1F7D0936A0110926B0110926C010E9427
:10145000DA03C6010197F1F710926A0110926B014D
:1014600010926C010E94DA03C5010197F1F7BFE405
:101470008B2EB1E09B2EF401C083118212820E9458
:10148000DA03C8010197F1F7F40110821182128288
:101490000E94DA03C7010197F1F7F3E08F0E911C68
:1014A0002814390441F7AFE48A2EA1E09A2EF40102
:1014B0001082118212820E94DA03C2010197F1F7B1
:1014C000F3E08F0E911C85E8881681E0980679F785
:1014D000FFE48F2EF1E09F2EF40110821182128220
:1014E0000E94DA03C2010197F1F7F3E08F0E911C1D
:1014F00085E8881681E0980679F7EFE48E2EE1E022
:101500009E2EF4011082118212820E94DA03C2011F
:101510000197F1F7F3E08F0E911C85E8881681E0C2
:10152000980679F77FE4872E71E0972EF4011082F8
:10153000118212820E94DA03C2010197F1F7F3E0EF
:101540008F0E911C85E8881681E0980679F76FE484
:10155000862E61E0962EF4011082118212820E9482
:10156000DA03C2010197F1F7F3E08F0E911C85E8D1
:10157000881681E0980679F7D093580110925901A6
:1015800010925A01D0935B0110925C0110925D01A0
:101590005FE4852E51E0952EF401C28B138A148AE4
:1015A0000E94DA03F3E08F0E911C87E6881681E033
:1015B000980691F7C8010197F1F71092580110921F
:1015C000590110925A0110925B0110925C01109225
:1015D0005D014FE4842E41E0942EF401128A138AB7
:1015E000148A0E94DA03F3E08F0E911C87E68816B6
:1015F00081E0980691F7C7010197F1F73FE4832E48
:1016000031E0932EF4011082118212820E94DA03DB
:10161000C2010197F1F7F3E08F0E911C85E888165F
:1016200081E0980679F72FE4822E21E0922EF401D2
:101630001082118212820E94DA03C2010197F1F72F
:10164000F3E08F0E911C85E8881681E0980679F703
:101650009FE4892E91E0992EF4011082118212826A
:101660000E94DA03C2010197F1F7F3E08F0E911C9B
:1016700085E8881681E0980679F78FE4882E81E066
:10168000982EF4011082118212820E94DA03C201A4
:101690000197F1F7F3E08F0E911C85E8881681E041
:1016A000980679F7C0938201109283011092840109
:1016B0000E94DA03C8010197F1F71092820110929B
:1016C0008301109284010E94DA03C7010197F1F7A8
:1016D000C09370011092710110927201C093730156
:1016E0001092740110927501C093760110927701E7
:1016F00010927801C093790110927A0110927B01C7
:10170000C0937F0110928001109281010E94DA0340
:10171000C8010197F1F710927001109271011092B7
:10172000720110927301109274011092750110925F
:10173000760110927701109278011092790110923F
:101740007A0110927B0110927F0110928001109219
:1017500081010E94DA03C7010197F1F7C0936D017F
:1017600010926E0110926F01C0937C0110927D0166
:1017700010927E010E94DA03C8010197F1F71092DE
:101780006D0110926E0110926F0110927C01109207
:101790007D0110927E010E94DA03C7010197F1F7E3
:1017A000C0936A0110926B0110926C01C0937F018B
:1017B00010928001109281010E94DA03C801019702
:1017C000F1F710926A0110926B0110926C01109265
:1017D0007F0110928001109281010E94DA03C701FB
:1017E0000197F1F7C09367011092680110926901A7
:1017F000C093820110928301109284010E94DA0347
:10180000C8010197F1F710926701109268011092D8
:1018100069011092820110928301109284010E944A
:10182000DA03C7010197F1F7C0936A0110926B01C7
:1018300010926C01C0937F0110928001109281017F
:101840000E94DA03C8010197F1F710926A01109221
:101850006B0110926C0110927F0110928001109226
:1018600081010E94DA03C7010197F1F7C0936D016E
:1018700010926E0110926F01C0937C0110927D0155
:1018800010927E010E94DA03C8010197F1F71092CD
:101890006D0110926E0110926F0110927C011092F6
:1018A0007D0110927E010E94DA03C7010197F1F7D2
:1018B000F301C1A312A213A20E94DA03C801019787
:1018C000F1F7F30111A212A213A20E94DA03C701D9
:1018D0000197F1F7F3E06F0E711C8BE5681681E05C
:1018E000780631F76AE270E080E090E00E940E0531
:1018F0000E9465010ACAE1E6F1E01382128288EED5
:1019000093E0A0E0B0E084839583A683B78386E26A
:1019100091E09183808385EC90E09587848784ECC7
:1019200090E09787868780EC90E0918B808B81ECAC
:1019300090E0938B828B82EC90E0958B848B86EC8D
:1019400090E0978B868B118E128E138E148EEEEF95
:10195000F1E08FEF808312821182148613868FEF5D
:101960009FEFDC0187839087A187B2870895DB0111
:101970008F939F930E94FD0CBF91AF91A29F800D0A
:10198000911DA39F900DB29F900D1124089597FB78
:10199000072E16F4009407D077FD09D00E94080D99
:1019A00007FC05D03EF4909581959F4F0895709562
:1019B00061957F4F0895A1E21A2EAA1BBB1BFD0162
:1019C0000DC0AA1FBB1FEE1FFF1FA217B307E4071E
:1019D000F50720F0A21BB30BE40BF50B661F771F76
:1019E000881F991F1A9469F7609570958095909556
:1019F0009B01AC01BD01CF0108950E94220DA59F5E
:101A0000900DB49F900DA49F800D911D11240895F9
:101A1000AA1BBB1B51E107C0AA1FBB1FA617B70714
:101A200010F0A61BB70B881F991F5A95A9F7809530
:101A30009095BC01CD010895EE0FFF1F0590F49124
:101A4000E02D0994A29FB001B39FC001A39F700D28
:101A5000811D1124911DB29F700D811D1124911DB6
:101A6000089581E090E0F8940C94360DF894FFCF3F
:101A700000000000AE02AE02AE028602A702AB0278
:101A8000000000004302FF01B0038602A702AB0280
:101A9000150300000000F6005F008D004301BE004A
:041AA0009C00B000F6
:00000001FF
